:020000040000FA
:100000000C945D000C9485000C9485000C94850084
:100010000C9485000C9485000C9485000C9485004C
:100020000C9485000C9485000C9485000C9485003C
:100030000C9485000C9485000C9485000C9485002C
:100040000C94CC020C9485000C9485000C948500D3
:100050000C9485000C9485000C9485000C9485000C
:100060000C9485000C94850000000008000201003B
:100070000003040700000000000000000000000072
:10008000250028002B0000000000240027002A0083
:10009000040404040404040402020202020203032E
:1000A0000303030301020408102040800102040836
:1000B0001020010204081020A20311241FBECFEF5C
:1000C000D8E0DEBFCDBF21E0A6E2B1E001C01D92C5
:1000D000AB34B207E1F711E0A0E0B1E0E2EEFBE003
:1000E00002C005900D92A632B107D9F710E0CDE518
:1000F000D0E004C02197FE010E94F703CC35D10760
:10010000C9F70E9416030C94EF050C94000090E0D0
:10011000FC01EC55FF4F249180579F4FFC018491C7
:10012000882399F090E0880F991FFC01EA57FF4F50
:10013000A591B491FC01E458FF4F859194918FB73C
:10014000F894EC91E22BEC938FBF0895AF92BF929D
:10015000CF92DF92EF92FF920F931F93CF93DF9393
:100160006C017B018B01040F151FEB015E01AE18C2
:10017000BF08C017D10759F06991D601ED91FC91E4
:100180000190F081E02DC6010995892B79F7C50111
:10019000DF91CF911F910F91FF90EF90DF90CF9063
:1001A000BF90AF90089590E0FC01E859FF4F249173
:1001B000FC01EC55FF4F3491FC01E057FF4FE491F7
:1001C000EE23C9F0222339F0233001F1A8F42130C5
:1001D00019F1223029F1F0E0EE0FFF1FE458FF4F34
:1001E000A591B4918FB7F894EC91611126C0309528
:1001F0003E233C938FBF08952730A9F02830C9F0E3
:10020000243049F7809180008F7D03C08091800069
:100210008F7780938000DFCF84B58F7784BDDBCF6D
:1002200084B58F7DFBCF8091B0008F778093B00035
:10023000D2CF8091B0008F7DF9CF3E2BDACF0895D9
:1002400090E080E00895EF92FF920F931F93CF9379
:10025000DF93EC017B01FB0101900020E9F731976E
:100260008F01061B170B88819981009729F02A813D
:100270003B812017310788F4B8016F5F7F4F0E94E0
:1002800022050097B9F0998388831B830A832C8108
:100290003D81232B11F4FC0110821D830C83B701D7
:1002A00088819981DF91CF911F910F91FF90EF90FD
:1002B0000C94E80588819981009711F00E949904B7
:1002C000198218821D821C821B821A82DF91CF91B3
:1002D0001F910F91FF90EF900895CF93DF93EC0162
:1002E00060E08E810E94D30061E08E810E94D30085
:1002F00060E08E810E94D3008BE891E00197F1F7D6
:10030000DF91CF910895CF92DF92EF92FF920F93FA
:100310001F93CF93DF936C017C0187E0E80EF11C03
:10032000D0E0C0E0062F10E0B8010C2E02C0759599
:1003300067950A94E2F76170F70181917F010E944D
:10034000D3002196C430D10579F7C601DF91CF9152
:100350001F910F91FF90EF90DF90CF900C946D0163
:10036000CF92DF92EF92FF920F931F93CF93DF9381
:10037000EC01F62E642F8C810E94D3008D818F3F7B
:1003800019F060E00E94D3000F2D10E08F8584FFEC
:1003900025C06E0187E0C80ED11CF12CE12CB801FC
:1003A0000E2C02C0759567950A94E2F76170F6010C
:1003B00081916F010E94D300FFEFEF1AFF0A88E0DE
:1003C000E816F10461F7CE01DF91CF911F910F91F3
:1003D000FF90EF90DF90CF900C946D01B80184E016
:1003E000759567958A95E1F7CE010E9483016F2D7F
:1003F000CE01DF91CF911F910F91FF90EF90DF9091
:10040000CF900C94830140E0682F8FE291E00C9430
:10041000B001CF93DF93823029F490913E01986030
:1004200090933E01809342011092430180E48093B7
:10043000440180E18093450180E5809346018091ED
:1004400033010E948700809134018F3F11F00E9498
:100450008700809135010E948700CFE2D1E09E01A4
:100460002F52314080913E0184FD0AC084E090E02B
:100470002196281739073CF48E810E948700EFCF20
:1004800088E090E0F5CF8BE39DE00197F1F760E025
:10049000809133010E94D30060E0809135010E9479
:1004A000D300809134018F3F19F060E00E94D300A7
:1004B00080913E0184FD39C063E08FE291E00E94AB
:1004C0008301CBE4D6E4CE010197F1F763E08FE23C
:1004D00091E00E9483012197F1F763E08FE291E0C0
:1004E0000E94830183E592E00197F1F762E08FE2D9
:1004F00091E00E94830180913E0180620E9403028C
:1005000084E080933F018CE00E94030281E00E941E
:1005100003028BE39FE10197F1F782E080934001B2
:1005200086E0DF91CF910C94030280620E94030267
:100530008BE496E40197F1F780913E0180620E947E
:10054000030283E592E00197F1F780913E0180621A
:100550000E940302D0CFCF93DF93EC018091420140
:10056000681710F06FEF680FE62FF0E0E15DFE4FC7
:10057000848980680E9403024C815D816881798151
:100580008FE291E0DF91CF910C94A60041E00E94B0
:10059000B00181E090E008951F920F920FB60F9284
:1005A00011242F933F938F939F93AF93BF93809189
:1005B0002B0190912C01A0912D01B0912E01309131
:1005C0002A0123E0230F2D3758F50196A11DB11DF7
:1005D00020932A0180932B0190932C01A0932D014D
:1005E000B0932E018091260190912701A0912801BE
:1005F000B09129010196A11DB11D80932601909310
:100600002701A0932801B0932901BF91AF919F9139
:100610008F913F912F910F900FBE0F901F901895C3
:1006200026E8230F0296A11DB11DD2CFCF93DF93F1
:1006300000D000D000D0CDB7DEB7789484B582600A
:1006400084BD84B5816084BD85B5826085BD85B576
:10065000816085BD80916E00816080936E001092F4
:10066000810080918100826080938100809181006F
:100670008160809381008091800081608093800000
:100680008091B10084608093B1008091B00081605E
:100690008093B00080917A00846080937A0080918A
:1006A0007A00826080937A0080917A0081608093E2
:1006B0007A0080917A00806880937A001092C1005D
:1006C00014E0812F0E9487001F5F1B30D1F782E06A
:1006D0000E9409021A8219821C821B821E821D82BC
:1006E00062E171E0CE0101960E94230170E060E0BA
:1006F000CE0101960E94AB0289819A81009711F088
:100700000E9499041A8219821C821B821E821D82F9
:100710006EE171E0CE0101960E94230161E070E07C
:10072000CE0101960E94AB0289819A81009711F057
:100730000E94990400E010E001151105E9F30E9400
:100740000000FACFEFE2F1E0138212828AE091E03A
:10075000918380838AE084838FEF858388E086831A
:1007600087E0878386E0808785E0818784E08287D1
:100770001386148615861686178681E00C94090266
:100780002F923F924F925F926F927F928F929F92A1
:10079000AF92BF92CF92DF92EF92FF920F931F938F
:1007A000CF93DF93CDB7DEB7CA1BDB0B0FB6F89440
:1007B000DEBF0FBECDBF09942A88398848885F8480
:1007C0006E847D848C849B84AA84B984C884DF80F1
:1007D000EE80FD800C811B81AA81B981CE0FD11DD5
:1007E0000FB6F894DEBF0FBECDBFED010895EE0F3A
:1007F000FF1F0590F491E02D09940F931F93CF9361
:10080000DF938230910510F482E090E0E09149019D
:10081000F0914A0130E020E0B0E0A0E0309799F498
:100820002115310509F44AC0281B390B2430310544
:10083000D8F58A819B816115710589F1FB0193834C
:100840008283FE0111C040815181028113814817CA
:100850005907E0F04817590799F4109761F012967C
:100860000C93129713961C933296CF01DF91CF9180
:100870001F910F9108950093490110934A01F4CFFD
:100880002115310551F04217530738F0A901DB015A
:100890009A01BD01DF01F801C1CFEF01F9CF9093BB
:1008A0004A0180934901CDCFFE01E20FF31F8193EE
:1008B00091932250310939832883D7CF2091470162
:1008C00030914801232B41F4209102013091030122
:1008D000309348012093470120910001309101019C
:1008E0002115310541F42DB73EB7409104015091D7
:1008F0000501241B350BE0914701F0914801E217F7
:10090000F307A0F42E1B3F0B2817390778F0AC0132
:100910004E5F5F4F2417350748F04E0F5F1F50930F
:10092000480140934701819391939FCFF0E0E0E02D
:100930009CCFCF93DF930097E9F0FC0132971382AD
:100940001282A0914901B0914A01ED0130E020E00E
:100950001097A1F420813181820F931F20914701CC
:10096000309148012817390709F061C0F093480118
:10097000E0934701DF91CF910895EA01CE17DF0799
:10098000E8F54A815B819E0141155105B1F7E90106
:10099000FB83EA8349915991C40FD51FEC17FD07DA
:1009A00061F4808191810296840F951FE9019983FA
:1009B0008883828193819B838A83F0E0E0E01296B2
:1009C0008D919C9113970097B9F52D913C911197BA
:1009D000CD010296820F931F20914701309148016B
:1009E0002817390739F6309751F510924A011092BD
:1009F0004901B0934801A0934701BCCFD383C28380
:100A000040815181840F951FC817D90761F44E5F4B
:100A10005F4F88819981480F591F518340838A8194
:100A20009B81938382832115310509F0B0CFF09328
:100A30004A01E09349019ECFFD01DC01C0CF138242
:100A40001282D7CFB0E0A0E0E8E2F5E00C94C20358
:100A50008C01009751F4CB010E94FD038C01C80169
:100A6000CDB7DEB7E0E10C94DE03FC01E60FF71F23
:100A70009C0122503109E217F30708F49DC0D90107
:100A8000CD91DC911197C617D70798F0C530D105E5
:100A900030F3CE0104978617970708F3C61BD70BD0
:100AA0002297C193D1936D937C93CF010E949904B7
:100AB000D6CF5B01AC1ABD0A4C018C0E9D1EA091D5
:100AC0004901B0914A01512C412CF12CE12C109795
:100AD00031F580914701909148018815990509F0F9
:100AE0005CC04616570608F058C0809100019091EE
:100AF0000101009741F48DB79EB7409104015091D8
:100B00000501841B950BE817F90708F055C0F09311
:100B10004801E0934701F90171836083A0CF8D9173
:100B20009C91119712966C90129713967C90139744
:100B3000A815B90559F56C0142E0C40ED11CCA14C0
:100B4000DB0420F1AC014A195B09DA011296159712
:100B500080F06282738251834083D9016D937C93CC
:100B6000E114F10471F0D7011396FC93EE93129700
:100B700076CF22968C0F9D1FF90191838083F3011C
:100B8000EFCFF0934A01E093490169CF4816590627
:100B900008F42C017D01D3019ACFCB010E94FD0303
:100BA0007C01009749F0AE01B8010E94DF05C80141
:100BB0000E949904870153CF10E000E050CFFB0161
:100BC000DC0102C001900D9241505040D8F70895C9
:100BD000FB01DC0101900D920020E1F70895F894EB
:100BE000FFCF00004B01800000000000C602A600FD
:100BF00020011F01686F6C61206275656E61730072
:080C00007175652074616C0040
:107E0000112484B714BE81FFF0D085E080938100F7
:107E100082E08093C00088E18093C10086E0809377
:107E2000C20080E18093C4008EE0C9D0259A86E02C
:107E300020E33CEF91E0309385002093840096BBD3
:107E4000B09BFECF1D9AA8958150A9F7CC24DD24C4
:107E500088248394B5E0AB2EA1E19A2EF3E0BF2EE7
:107E6000A2D0813461F49FD0082FAFD0023811F036
:107E7000013811F484E001C083E08DD089C08234E0
:107E800011F484E103C0853419F485E0A6D080C0E4
:107E9000853579F488D0E82EFF2485D0082F10E0AE
:107EA000102F00270E291F29000F111F8ED06801E7
:107EB0006FC0863521F484E090D080E0DECF843638
:107EC00009F040C070D06FD0082F6DD080E0C81688
:107ED00080E7D80618F4F601B7BEE895C0E0D1E017
:107EE00062D089930C17E1F7F0E0CF16F0E7DF06D8
:107EF00018F0F601B7BEE89568D007B600FCFDCFD4
:107F0000A601A0E0B1E02C9130E011968C91119780
:107F100090E0982F8827822B932B1296FA010C0160
:107F200087BEE89511244E5F5F4FF1E0A038BF0790
:107F300051F7F601A7BEE89507B600FCFDCF97BE46
:107F4000E89526C08437B1F42ED02DD0F82E2BD052
:107F50003CD0F601EF2C8F010F5F1F4F84911BD097
:107F6000EA94F801C1F70894C11CD11CFA94CF0C13
:107F7000D11C0EC0853739F428D08EE10CD085E9AC
:107F80000AD08FE07ACF813511F488E018D01DD067
:107F900080E101D065CF982F8091C00085FFFCCF94
:107FA0009093C60008958091C00087FFFCCF809118
:107FB000C00084FD01C0A8958091C6000895E0E648
:107FC000F0E098E1908380830895EDDF803219F02E
:107FD00088E0F5DFFFCF84E1DECF1F93182FE3DFCA
:107FE0001150E9F7F2DF1F91089580E0E8DFEE27F6
:047FF000FF270994CA
:027FFE00040479
:00000001FF
